{
  "_format": "hh-sol-artifact-1",
  "contractName": "Election",
  "sourceName": "contracts/Election.sol",
  "abi": [
    {
      "inputs": [],
      "stateMutability": "nonpayable",
      "type": "constructor"
    },
    {
      "inputs": [
        {
          "internalType": "string",
          "name": "_name",
          "type": "string"
        }
      ],
      "name": "CreateCandidates",
      "outputs": [
        {
          "internalType": "uint256",
          "name": "",
          "type": "uint256"
        }
      ],
      "stateMutability": "nonpayable",
      "type": "function"
    },
    {
      "inputs": [
        {
          "internalType": "address",
          "name": "",
          "type": "address"
        }
      ],
      "name": "addressToVoters",
      "outputs": [
        {
          "internalType": "uint256",
          "name": "voterId",
          "type": "uint256"
        },
        {
          "internalType": "string",
          "name": "name",
          "type": "string"
        },
        {
          "internalType": "address",
          "name": "voterAddress",
          "type": "address"
        },
        {
          "internalType": "bool",
          "name": "voted",
          "type": "bool"
        }
      ],
      "stateMutability": "view",
      "type": "function"
    },
    {
      "inputs": [],
      "name": "cId",
      "outputs": [
        {
          "internalType": "uint256",
          "name": "",
          "type": "uint256"
        }
      ],
      "stateMutability": "view",
      "type": "function"
    },
    {
      "inputs": [
        {
          "internalType": "uint256",
          "name": "voterID",
          "type": "uint256"
        }
      ],
      "name": "checkVote",
      "outputs": [],
      "stateMutability": "view",
      "type": "function"
    },
    {
      "inputs": [
        {
          "internalType": "string",
          "name": "_name",
          "type": "string"
        }
      ],
      "name": "createVoter",
      "outputs": [
        {
          "internalType": "uint256",
          "name": "",
          "type": "uint256"
        }
      ],
      "stateMutability": "nonpayable",
      "type": "function"
    },
    {
      "inputs": [
        {
          "internalType": "uint256",
          "name": "",
          "type": "uint256"
        }
      ],
      "name": "idToCandidates",
      "outputs": [
        {
          "internalType": "uint256",
          "name": "id",
          "type": "uint256"
        },
        {
          "internalType": "string",
          "name": "name",
          "type": "string"
        },
        {
          "internalType": "uint256",
          "name": "voteCount",
          "type": "uint256"
        }
      ],
      "stateMutability": "view",
      "type": "function"
    },
    {
      "inputs": [],
      "name": "owner",
      "outputs": [
        {
          "internalType": "address",
          "name": "",
          "type": "address"
        }
      ],
      "stateMutability": "view",
      "type": "function"
    },
    {
      "inputs": [],
      "name": "totalVoters",
      "outputs": [
        {
          "internalType": "uint256",
          "name": "",
          "type": "uint256"
        }
      ],
      "stateMutability": "view",
      "type": "function"
    },
    {
      "inputs": [
        {
          "internalType": "uint256",
          "name": "_candidatesNo",
          "type": "uint256"
        }
      ],
      "name": "vote",
      "outputs": [
        {
          "internalType": "bool",
          "name": "",
          "type": "bool"
        }
      ],
      "stateMutability": "nonpayable",
      "type": "function"
    },
    {
      "inputs": [],
      "name": "winner",
      "outputs": [
        {
          "internalType": "string",
          "name": "",
          "type": "string"
        }
      ],
      "stateMutability": "view",
      "type": "function"
    }
  ],
  "bytecode": "0x6080604052600060015560006002556005600355601460045534801561002457600080fd5b50336000806101000a81548173ffffffffffffffffffffffffffffffffffffffff021916908373ffffffffffffffffffffffffffffffffffffffff160217905550610fda806100746000396000f3fe608060405234801561001057600080fd5b506004361061009e5760003560e01c8063a601651a11610066578063a601651a1461015d578063b9ce795f14610190578063dfbf53ae146101c0578063e2f63deb146101de578063e40685d3146101fa5761009e565b80630121b93f146100a35780632ae0d31b146100d35780634f043d4f146101035780635f5300ff146101215780638da5cb5b1461013f575b600080fd5b6100bd60048036038101906100b89190610a0a565b61022c565b6040516100ca9190610b1d565b60405180910390f35b6100ed60048036038101906100e891906109c9565b61035a565b6040516100fa9190610bba565b60405180910390f35b61010b61049c565b6040516101189190610bba565b60405180910390f35b6101296104a2565b6040516101369190610bba565b60405180910390f35b6101476104ac565b6040516101549190610b02565b60405180910390f35b610177600480360381019061017291906109a0565b6104d0565b6040516101879493929190610bd5565b60405180910390f35b6101aa60048036038101906101a591906109c9565b6105b5565b6040516101b79190610bba565b60405180910390f35b6101c861076f565b6040516101d59190610b38565b60405180910390f35b6101f860048036038101906101f39190610a0a565b6107b6565b005b610214600480360381019061020f9190610a0a565b6107b9565b60405161022393929190610c21565b60405180910390f35b600080600660003373ffffffffffffffffffffffffffffffffffffffff1673ffffffffffffffffffffffffffffffffffffffff16815260200190815260200160002060020160149054906101000a900460ff16905060001515811515146102c8576040517f08c379a00000000000000000000000000000000000000000000000000000000081526004016102bf90610b9a565b60405180910390fd5b60016005600085815260200190815260200160002060020160008282546102ef9190610cd1565b925050819055506001600660003373ffffffffffffffffffffffffffffffffffffffff1673ffffffffffffffffffffffffffffffffffffffff16815260200190815260200160002060020160146101000a81548160ff02191690831515021790555080915050919050565b60003373ffffffffffffffffffffffffffffffffffffffff1660008054906101000a900473ffffffffffffffffffffffffffffffffffffffff1673ffffffffffffffffffffffffffffffffffffffff16146103ea576040517f08c379a00000000000000000000000000000000000000000000000000000000081526004016103e190610b5a565b60405180910390fd5b600160008154809291906103fd90610e14565b919050555060006001600560006001548152602001908152602001600020600201546104299190610cd1565b9050604051806060016040528060015481526020018481526020018281525060056000600154815260200190815260200160002060008201518160000155602082015181600101908051906020019061048392919061086b565b5060408201518160020155905050600154915050919050565b60015481565b6000600254905090565b60008054906101000a900473ffffffffffffffffffffffffffffffffffffffff1681565b60066020528060005260406000206000915090508060000154908060010180546104f990610db1565b80601f016020809104026020016040519081016040528092919081815260200182805461052590610db1565b80156105725780601f1061054757610100808354040283529160200191610572565b820191906000526020600020905b81548152906001019060200180831161055557829003601f168201915b5050505050908060020160009054906101000a900473ffffffffffffffffffffffffffffffffffffffff16908060020160149054906101000a900460ff16905084565b600080600660003373ffffffffffffffffffffffffffffffffffffffff1673ffffffffffffffffffffffffffffffffffffffff16815260200190815260200160002060000154905060008114610640576040517f08c379a000000000000000000000000000000000000000000000000000000000815260040161063790610b7a565b60405180910390fd5b6002600081548092919061065390610e14565b9190505550604051806080016040528060025481526020018481526020013373ffffffffffffffffffffffffffffffffffffffff16815260200160001515815250600660003373ffffffffffffffffffffffffffffffffffffffff1673ffffffffffffffffffffffffffffffffffffffff1681526020019081526020016000206000820151816000015560208201518160010190805190602001906106f992919061086b565b5060408201518160020160006101000a81548173ffffffffffffffffffffffffffffffffffffffff021916908373ffffffffffffffffffffffffffffffffffffffff16021790555060608201518160020160146101000a81548160ff021916908315150217905550905050600254915050919050565b6060806000600190505b60015481116107b1576000600560008381526020019081526020016000206002015490505080806107a990610e14565b915050610779565b505090565b50565b60056020528060005260406000206000915090508060000154908060010180546107e290610db1565b80601f016020809104026020016040519081016040528092919081815260200182805461080e90610db1565b801561085b5780601f106108305761010080835404028352916020019161085b565b820191906000526020600020905b81548152906001019060200180831161083e57829003601f168201915b5050505050908060020154905083565b82805461087790610db1565b90600052602060002090601f01602090048101928261089957600085556108e0565b82601f106108b257805160ff19168380011785556108e0565b828001600101855582156108e0579182015b828111156108df5782518255916020019190600101906108c4565b5b5090506108ed91906108f1565b5090565b5b8082111561090a5760008160009055506001016108f2565b5090565b600061092161091c84610c84565b610c5f565b90508281526020810184848401111561093957600080fd5b610944848285610d6f565b509392505050565b60008135905061095b81610f76565b92915050565b600082601f83011261097257600080fd5b813561098284826020860161090e565b91505092915050565b60008135905061099a81610f8d565b92915050565b6000602082840312156109b257600080fd5b60006109c08482850161094c565b91505092915050565b6000602082840312156109db57600080fd5b600082013567ffffffffffffffff8111156109f557600080fd5b610a0184828501610961565b91505092915050565b600060208284031215610a1c57600080fd5b6000610a2a8482850161098b565b91505092915050565b610a3c81610d27565b82525050565b610a4b81610d39565b82525050565b6000610a5c82610cb5565b610a668185610cc0565b9350610a76818560208601610d7e565b610a7f81610eea565b840191505092915050565b6000610a97602083610cc0565b9150610aa282610efb565b602082019050919050565b6000610aba601f83610cc0565b9150610ac582610f24565b602082019050919050565b6000610add601283610cc0565b9150610ae882610f4d565b602082019050919050565b610afc81610d65565b82525050565b6000602082019050610b176000830184610a33565b92915050565b6000602082019050610b326000830184610a42565b92915050565b60006020820190508181036000830152610b528184610a51565b905092915050565b60006020820190508181036000830152610b7381610a8a565b9050919050565b60006020820190508181036000830152610b9381610aad565b9050919050565b60006020820190508181036000830152610bb381610ad0565b9050919050565b6000602082019050610bcf6000830184610af3565b92915050565b6000608082019050610bea6000830187610af3565b8181036020830152610bfc8186610a51565b9050610c0b6040830185610a33565b610c186060830184610a42565b95945050505050565b6000606082019050610c366000830186610af3565b8181036020830152610c488185610a51565b9050610c576040830184610af3565b949350505050565b6000610c69610c7a565b9050610c758282610de3565b919050565b6000604051905090565b600067ffffffffffffffff821115610c9f57610c9e610ebb565b5b610ca882610eea565b9050602081019050919050565b600081519050919050565b600082825260208201905092915050565b6000610cdc82610d65565b9150610ce783610d65565b9250827fffffffffffffffffffffffffffffffffffffffffffffffffffffffffffffffff03821115610d1c57610d1b610e5d565b5b828201905092915050565b6000610d3282610d45565b9050919050565b60008115159050919050565b600073ffffffffffffffffffffffffffffffffffffffff82169050919050565b6000819050919050565b82818337600083830152505050565b60005b83811015610d9c578082015181840152602081019050610d81565b83811115610dab576000848401525b50505050565b60006002820490506001821680610dc957607f821691505b60208210811415610ddd57610ddc610e8c565b5b50919050565b610dec82610eea565b810181811067ffffffffffffffff82111715610e0b57610e0a610ebb565b5b80604052505050565b6000610e1f82610d65565b91507fffffffffffffffffffffffffffffffffffffffffffffffffffffffffffffffff821415610e5257610e51610e5d565b5b600182019050919050565b7f4e487b7100000000000000000000000000000000000000000000000000000000600052601160045260246000fd5b7f4e487b7100000000000000000000000000000000000000000000000000000000600052602260045260246000fd5b7f4e487b7100000000000000000000000000000000000000000000000000000000600052604160045260246000fd5b6000601f19601f8301169050919050565b7f596f752063616e206e6f742063726561746520616e792063616e646964617465600082015250565b7f7573657220416c7265616479206372656174656420616e206163636f756e7400600082015250565b7f7573657220616c726561647920766f7465640000000000000000000000000000600082015250565b610f7f81610d27565b8114610f8a57600080fd5b50565b610f9681610d65565b8114610fa157600080fd5b5056fea2646970667358221220d8facbb272b3f6e34b2a24d5e2f8c580247a8bb74716de1d5acab55f975d2f7d64736f6c63430008040033",
  "linkReferences": {},
  "deployedLinkReferences": {}
}